{
  "contractName": "Test",
  "abi": [
    {
      "constant": false,
      "inputs": [
        {
          "name": "_question",
          "type": "string"
        }
      ],
      "name": "createVote",
      "outputs": [],
      "payable": false,
      "stateMutability": "nonpayable",
      "type": "function"
    },
    {
      "constant": true,
      "inputs": [
        {
          "name": "_voteId",
          "type": "uint256"
        }
      ],
      "name": "results",
      "outputs": [
        {
          "name": "",
          "type": "string"
        }
      ],
      "payable": false,
      "stateMutability": "view",
      "type": "function"
    },
    {
      "constant": false,
      "inputs": [
        {
          "name": "_voteId",
          "type": "uint256"
        }
      ],
      "name": "startVote",
      "outputs": [],
      "payable": false,
      "stateMutability": "nonpayable",
      "type": "function"
    },
    {
      "constant": false,
      "inputs": [
        {
          "name": "_voteId",
          "type": "uint256"
        }
      ],
      "name": "stopVote",
      "outputs": [],
      "payable": false,
      "stateMutability": "nonpayable",
      "type": "function"
    },
    {
      "constant": true,
      "inputs": [
        {
          "name": "",
          "type": "uint256"
        }
      ],
      "name": "votes",
      "outputs": [
        {
          "name": "question",
          "type": "string"
        },
        {
          "name": "voteState",
          "type": "uint8"
        }
      ],
      "payable": false,
      "stateMutability": "view",
      "type": "function"
    },
    {
      "constant": false,
      "inputs": [],
      "name": "renounceOwnership",
      "outputs": [],
      "payable": false,
      "stateMutability": "nonpayable",
      "type": "function"
    },
    {
      "constant": false,
      "inputs": [
        {
          "name": "_voteId",
          "type": "uint256"
        },
        {
          "name": "_answer",
          "type": "string"
        }
      ],
      "name": "addAnswer",
      "outputs": [],
      "payable": false,
      "stateMutability": "nonpayable",
      "type": "function"
    },
    {
      "constant": true,
      "inputs": [],
      "name": "owner",
      "outputs": [
        {
          "name": "",
          "type": "address"
        }
      ],
      "payable": false,
      "stateMutability": "view",
      "type": "function"
    },
    {
      "constant": false,
      "inputs": [
        {
          "name": "_voteId",
          "type": "uint256"
        },
        {
          "name": "_answerId",
          "type": "uint256"
        }
      ],
      "name": "cast",
      "outputs": [],
      "payable": false,
      "stateMutability": "nonpayable",
      "type": "function"
    },
    {
      "constant": false,
      "inputs": [
        {
          "name": "_newOwner",
          "type": "address"
        }
      ],
      "name": "transferOwnership",
      "outputs": [],
      "payable": false,
      "stateMutability": "nonpayable",
      "type": "function"
    },
    {
      "anonymous": false,
      "inputs": [
        {
          "indexed": true,
          "name": "previousOwner",
          "type": "address"
        }
      ],
      "name": "OwnershipRenounced",
      "type": "event"
    },
    {
      "anonymous": false,
      "inputs": [
        {
          "indexed": true,
          "name": "previousOwner",
          "type": "address"
        },
        {
          "indexed": true,
          "name": "newOwner",
          "type": "address"
        }
      ],
      "name": "OwnershipTransferred",
      "type": "event"
    },
    {
      "constant": true,
      "inputs": [
        {
          "name": "_voteId",
          "type": "uint256"
        },
        {
          "name": "_answer",
          "type": "string"
        }
      ],
      "name": "testAddAnswer",
      "outputs": [
        {
          "name": "",
          "type": "string"
        }
      ],
      "payable": false,
      "stateMutability": "view",
      "type": "function"
    },
    {
      "constant": true,
      "inputs": [
        {
          "name": "_voteId",
          "type": "uint256"
        }
      ],
      "name": "testStartVote",
      "outputs": [
        {
          "name": "",
          "type": "uint8"
        }
      ],
      "payable": false,
      "stateMutability": "view",
      "type": "function"
    },
    {
      "constant": true,
      "inputs": [
        {
          "name": "_voteId",
          "type": "uint256"
        }
      ],
      "name": "testStopVote",
      "outputs": [
        {
          "name": "",
          "type": "uint8"
        }
      ],
      "payable": false,
      "stateMutability": "view",
      "type": "function"
    },
    {
      "constant": true,
      "inputs": [
        {
          "name": "_newOwner",
          "type": "address"
        }
      ],
      "name": "testTransferOwnership",
      "outputs": [
        {
          "name": "",
          "type": "address"
        }
      ],
      "payable": false,
      "stateMutability": "view",
      "type": "function"
    },
    {
      "constant": true,
      "inputs": [],
      "name": "testRenounceOwnership",
      "outputs": [
        {
          "name": "",
          "type": "address"
        }
      ],
      "payable": false,
      "stateMutability": "view",
      "type": "function"
    },
    {
      "constant": true,
      "inputs": [
        {
          "name": "_voteId",
          "type": "uint256"
        },
        {
          "name": "_answerId",
          "type": "uint256"
        }
      ],
      "name": "testCast",
      "outputs": [
        {
          "name": "",
          "type": "string"
        }
      ],
      "payable": false,
      "stateMutability": "view",
      "type": "function"
    }
  ],
  "bytecode": "0x6080604052336000806101000a81548173ffffffffffffffffffffffffffffffffffffffff021916908373ffffffffffffffffffffffffffffffffffffffff160217905550611b65806100536000396000f3006080604052600436106100e6576000357c0100000000000000000000000000000000000000000000000000000000900463ffffffff16806313292a02146100eb578063176ea0e0146101545780631b0c27da146102045780631dcf708b146102aa5780633720e5b8146102f95780633f2205241461037c57806343ab92b7146103a95780635df81330146103d6578063715018a6146104915780637491995a146104a85780638da5cb5b1461051b578063a396870e14610572578063dd2d9cb2146105c1578063f09d1d44146105f8578063f2fde38b1461064f578063fd098be014610692575b600080fd5b3480156100f757600080fd5b50610152600480360381019080803590602001908201803590602001908080601f0160208091040260200160405190810160405280939291908181526020018383808284378201915050505050509192919290505050610750565b005b34801561016057600080fd5b5061018960048036038101908080359060200190929190803590602001909291905050506108ee565b6040518080602001828103825283818151815260200191508051906020019080838360005b838110156101c95780820151818401526020810190506101ae565b50505050905090810190601f1680156101f65780820380516001836020036101000a031916815260200191505b509250505060405180910390f35b34801561021057600080fd5b5061022f60048036038101908080359060200190929190505050610ad4565b6040518080602001828103825283818151815260200191508051906020019080838360005b8381101561026f578082015181840152602081019050610254565b50505050905090810190601f16801561029c5780820380516001836020036101000a031916815260200191505b509250505060405180910390f35b3480156102b657600080fd5b506102d560048036038101908080359060200190929190505050610d46565b604051808260028111156102e557fe5b60ff16815260200191505060405180910390f35b34801561030557600080fd5b5061033a600480360381019080803573ffffffffffffffffffffffffffffffffffffffff169060200190929190505050610d86565b604051808273ffffffffffffffffffffffffffffffffffffffff1673ffffffffffffffffffffffffffffffffffffffff16815260200191505060405180910390f35b34801561038857600080fd5b506103a760048036038101908080359060200190929190505050610dba565b005b3480156103b557600080fd5b506103d460048036038101908080359060200190929190505050610ef4565b005b3480156103e257600080fd5b5061040160048036038101908080359060200190929190505050610ffc565b604051808060200183600281111561041557fe5b60ff168152602001828103825284818151815260200191508051906020019080838360005b8381101561045557808201518184015260208101905061043a565b50505050905090810190601f1680156104825780820380516001836020036101000a031916815260200191505b50935050505060405180910390f35b34801561049d57600080fd5b506104a66110d4565b005b3480156104b457600080fd5b5061051960048036038101908080359060200190929190803590602001908201803590602001908080601f01602080910402602001604051908101604052809392919081815260200183838082843782019150505050505091929192905050506111d6565b005b34801561052757600080fd5b506105306112fa565b604051808273ffffffffffffffffffffffffffffffffffffffff1673ffffffffffffffffffffffffffffffffffffffff16815260200191505060405180910390f35b34801561057e57600080fd5b5061059d6004803603810190808035906020019092919050505061131f565b604051808260028111156105ad57fe5b60ff16815260200191505060405180910390f35b3480156105cd57600080fd5b506105f6600480360381019080803590602001909291908035906020019092919050505061135f565b005b34801561060457600080fd5b5061060d6115ad565b604051808273ffffffffffffffffffffffffffffffffffffffff1673ffffffffffffffffffffffffffffffffffffffff16815260200191505060405180910390f35b34801561065b57600080fd5b50610690600480360381019080803573ffffffffffffffffffffffffffffffffffffffff1690602001909291905050506115d6565b005b34801561069e57600080fd5b506106d56004803603810190808035906020019092919080359060200190820180359060200191909192939192939050505061163d565b6040518080602001828103825283818151815260200191508051906020019080838360005b838110156107155780820151818401526020810190506106fa565b50505050905090810190601f1680156107425780820380516001836020036101000a031916815260200191505b509250505060405180910390f35b60006001806080604051908101604052808581526020016000600281111561077457fe5b815260200160006040519080825280602002602001820160405280156107ae57816020015b60608152602001906001900390816107995790505b50815260200160006040519080825280602002602001820160405280156107e45781602001602082028038833980820191505090505b5081525090806001815401808255809150509060018203906000526020600020906005020160009091929091909150600082015181600001908051906020019061082f929190611873565b5060208201518160010160006101000a81548160ff0219169083600281111561085457fe5b021790555060408201518160020190805190602001906108759291906118f3565b506060820151816003019080519060200190610892929190611953565b505050039050336002600083815260200190815260200160002060006101000a81548173ffffffffffffffffffffffffffffffffffffffff021916908373ffffffffffffffffffffffffffffffffffffffff1602179055505050565b606060006108fc848461135f565b600090505b60018481548110151561091057fe5b906000526020600020906005020160030180549050811015610acc573373ffffffffffffffffffffffffffffffffffffffff1660018581548110151561095257fe5b90600052602060002090600502016003018281548110151561097057fe5b9060005260206000200160009054906101000a900473ffffffffffffffffffffffffffffffffffffffff1673ffffffffffffffffffffffffffffffffffffffff161415610abf576001848154811015156109c657fe5b90600052602060002090600502016002016001858154811015156109e657fe5b9060005260206000209060050201600401600083815260200190815260200160002054815481101515610a1557fe5b906000526020600020018054600181600116156101000203166002900480601f016020809104026020016040519081016040528092919081815260200182805460018160011615610100020316600290048015610ab35780601f10610a8857610100808354040283529160200191610ab3565b820191906000526020600020905b815481529060010190602001808311610a9657829003601f168201915b50505050509150610acd565b8080600101915050610901565b5b5092915050565b60608060008084600280811115610ae757fe5b600182815481101515610af657fe5b906000526020600020906005020160010160009054906101000a900460ff166002811115610b2057fe5b141515610b2c57600080fd5b600186815481101515610b3b57fe5b906000526020600020906005020160020180549050604051908082528060200260200182016040528015610b7e5781602001602082028038833980820191505090505b509350600092505b600186815481101515610b9557fe5b906000526020600020906005020160030180549050831015610c125783600187815481101515610bc157fe5b9060005260206000209060050201600401600085815260200190815260200160002054815181101515610bf057fe5b9060200190602002018051809190600101815250508280600101935050610b86565b60009150600092505b8351831015610c6b578382815181101515610c3257fe5b906020019060200201518484815181101515610c4a57fe5b906020019060200201511115610c5e578291505b8280600101935050610c1b565b600186815481101515610c7a57fe5b906000526020600020906005020160020182815481101515610c9857fe5b906000526020600020018054600181600116156101000203166002900480601f016020809104026020016040519081016040528092919081815260200182805460018160011615610100020316600290048015610d365780601f10610d0b57610100808354040283529160200191610d36565b820191906000526020600020905b815481529060010190602001808311610d1957829003601f168201915b5050505050945050505050919050565b6000610d5182610ef4565b600182815481101515610d6057fe5b906000526020600020906005020160010160009054906101000a900460ff169050919050565b6000610d91826115d6565b6000809054906101000a900473ffffffffffffffffffffffffffffffffffffffff169050919050565b8060006002811115610dc857fe5b600182815481101515610dd757fe5b906000526020600020906005020160010160009054906101000a900460ff166002811115610e0157fe5b141515610e0d57600080fd5b813373ffffffffffffffffffffffffffffffffffffffff166002600083815260200190815260200160002060009054906101000a900473ffffffffffffffffffffffffffffffffffffffff1673ffffffffffffffffffffffffffffffffffffffff16141515610e7b57600080fd5b6002600184815481101515610e8c57fe5b90600052602060002090600502016002018054905010151515610eae57600080fd5b60018084815481101515610ebe57fe5b906000526020600020906005020160010160006101000a81548160ff02191690836002811115610eea57fe5b0217905550505050565b8060016002811115610f0257fe5b600182815481101515610f1157fe5b906000526020600020906005020160010160009054906101000a900460ff166002811115610f3b57fe5b141515610f4757600080fd5b813373ffffffffffffffffffffffffffffffffffffffff166002600083815260200190815260200160002060009054906101000a900473ffffffffffffffffffffffffffffffffffffffff1673ffffffffffffffffffffffffffffffffffffffff16141515610fb557600080fd5b6002600184815481101515610fc657fe5b906000526020600020906005020160010160006101000a81548160ff02191690836002811115610ff257fe5b0217905550505050565b60018181548110151561100b57fe5b9060005260206000209060050201600091509050806000018054600181600116156101000203166002900480601f0160208091040260200160405190810160405280929190818152602001828054600181600116156101000203166002900480156110b75780601f1061108c576101008083540402835291602001916110b7565b820191906000526020600020905b81548152906001019060200180831161109a57829003601f168201915b5050505050908060010160009054906101000a900460ff16905082565b6000809054906101000a900473ffffffffffffffffffffffffffffffffffffffff1673ffffffffffffffffffffffffffffffffffffffff163373ffffffffffffffffffffffffffffffffffffffff1614151561112f57600080fd5b6000809054906101000a900473ffffffffffffffffffffffffffffffffffffffff1673ffffffffffffffffffffffffffffffffffffffff167ff8df31144d9c2f0f6b59d69b8b98abd5459d07f2742c4df920b25aae33c6482060405160405180910390a260008060006101000a81548173ffffffffffffffffffffffffffffffffffffffff021916908373ffffffffffffffffffffffffffffffffffffffff160217905550565b81600060028111156111e457fe5b6001828154811015156111f357fe5b906000526020600020906005020160010160009054906101000a900460ff16600281111561121d57fe5b14151561122957600080fd5b823373ffffffffffffffffffffffffffffffffffffffff166002600083815260200190815260200160002060009054906101000a900473ffffffffffffffffffffffffffffffffffffffff1673ffffffffffffffffffffffffffffffffffffffff1614151561129757600080fd5b6001848154811015156112a657fe5b90600052602060002090600502016002018390806001815401808255809150509060018203906000526020600020016000909192909190915090805190602001906112f29291906119dd565b505050505050565b6000809054906101000a900473ffffffffffffffffffffffffffffffffffffffff1681565b600061132a82610dba565b60018281548110151561133957fe5b906000526020600020906005020160010160009054906101000a900460ff169050919050565b600080836001600281111561137057fe5b60018281548110151561137f57fe5b906000526020600020906005020160010160009054906101000a900460ff1660028111156113a957fe5b1415156113b557600080fd5b6001858154811015156113c457fe5b906000526020600020906005020160020180549050841015156113e657600080fd5b600092505b6001858154811015156113fa57fe5b9060005260206000209060050201600301805490508310156114e9573373ffffffffffffffffffffffffffffffffffffffff1660018681548110151561143c57fe5b90600052602060002090600502016003018481548110151561145a57fe5b9060005260206000200160009054906101000a900473ffffffffffffffffffffffffffffffffffffffff1673ffffffffffffffffffffffffffffffffffffffff1614156114dc57836001868154811015156114b157fe5b90600052602060002090600502016004016000858152602001908152602001600020819055506114e9565b82806001019350506113eb565b600180868154811015156114f957fe5b90600052602060002090600502016003013390806001815401808255809150509060018203906000526020600020016000909192909190916101000a81548173ffffffffffffffffffffffffffffffffffffffff021916908373ffffffffffffffffffffffffffffffffffffffff1602179055500391508360018681548110151561158057fe5b90600052602060002090600502016004016000848152602001908152602001600020819055505050505050565b60008060009054906101000a900473ffffffffffffffffffffffffffffffffffffffff16905090565b6000809054906101000a900473ffffffffffffffffffffffffffffffffffffffff1673ffffffffffffffffffffffffffffffffffffffff163373ffffffffffffffffffffffffffffffffffffffff1614151561163157600080fd5b61163a81611779565b50565b606061167b8484848080601f0160208091040260200160405190810160405280939291908181526020018383808284378201915050505050506111d6565b60018481548110151561168a57fe5b9060005260206000209060050201600201600180868154811015156116ab57fe5b906000526020600020906005020160020180549050038154811015156116cd57fe5b906000526020600020018054600181600116156101000203166002900480601f01602080910402602001604051908101604052809291908181526020018280546001816001161561010002031660029004801561176b5780601f106117405761010080835404028352916020019161176b565b820191906000526020600020905b81548152906001019060200180831161174e57829003601f168201915b505050505090509392505050565b600073ffffffffffffffffffffffffffffffffffffffff168173ffffffffffffffffffffffffffffffffffffffff16141515156117b557600080fd5b8073ffffffffffffffffffffffffffffffffffffffff166000809054906101000a900473ffffffffffffffffffffffffffffffffffffffff1673ffffffffffffffffffffffffffffffffffffffff167f8be0079c531659141344cd1fd0a4f28419497f9722a3daafe3b4186f6b6457e060405160405180910390a3806000806101000a81548173ffffffffffffffffffffffffffffffffffffffff021916908373ffffffffffffffffffffffffffffffffffffffff16021790555050565b828054600181600116156101000203166002900490600052602060002090601f016020900481019282601f106118b457805160ff19168380011785556118e2565b828001600101855582156118e2579182015b828111156118e15782518255916020019190600101906118c6565b5b5090506118ef9190611a5d565b5090565b828054828255906000526020600020908101928215611942579160200282015b82811115611941578251829080519060200190611931929190611873565b5091602001919060010190611913565b5b50905061194f9190611a82565b5090565b8280548282559060005260206000209081019282156119cc579160200282015b828111156119cb5782518260006101000a81548173ffffffffffffffffffffffffffffffffffffffff021916908373ffffffffffffffffffffffffffffffffffffffff16021790555091602001919060010190611973565b5b5090506119d99190611aae565b5090565b828054600181600116156101000203166002900490600052602060002090601f016020900481019282601f10611a1e57805160ff1916838001178555611a4c565b82800160010185558215611a4c579182015b82811115611a4b578251825591602001919060010190611a30565b5b509050611a599190611a5d565b5090565b611a7f91905b80821115611a7b576000816000905550600101611a63565b5090565b90565b611aab91905b80821115611aa75760008181611a9e9190611af1565b50600101611a88565b5090565b90565b611aee91905b80821115611aea57600081816101000a81549073ffffffffffffffffffffffffffffffffffffffff021916905550600101611ab4565b5090565b90565b50805460018160011615610100020316600290046000825580601f10611b175750611b36565b601f016020900490600052602060002090810190611b359190611a5d565b5b505600a165627a7a723058200478bea2f1f7f447395a69b47430c3bb83fbcef0894032379dc2f8745d20c53f0029",
  "source": "pragma solidity ^0.4.24;\n\nimport \"./VoteFactory.sol\";\n\n//CONTRACT FOR IZI TESTS\ncontract Test is VoteFactory {\n\n    function testAddAnswer(uint _voteId, string _answer) external constant returns(string) {\n        addAnswer(_voteId, _answer);\n        return votes[_voteId].answers[votes[_voteId].answers.length-1];\n    }\n\n    function testStartVote(uint _voteId) external constant returns(State) {\n        startVote(_voteId);\n        return votes[_voteId].voteState;\n    }\n\n    function testStopVote(uint _voteId) external constant returns(State) {\n        stopVote(_voteId);\n        return votes[_voteId].voteState;\n    }\n\n    function testTransferOwnership(address _newOwner) external constant returns(address) {\n        transferOwnership(_newOwner);\n\n        return owner;\n    }\n\n    function testRenounceOwnership() external constant returns (address) {\n        return owner;\n    }\n\n    function testCast(uint256 _voteId, uint256 _answerId) external constant returns(string) {\n        cast(_voteId, _answerId);\n        for (uint i = 0; i < votes[_voteId].users.length; i++){\n            if (votes[_voteId].users[i] == msg.sender){\n                return votes[_voteId].answers[votes[_voteId].userToAnswer[i]];\n            }\n        }\n    }\n}\n",
  "sourcePath": "/home/bgdnvdmtry/Рабочий стол/Napoleon/contracts/Test.sol",
  "compiler": {
    "name": "solc",
    "version": "0.4.24+commit.e67f0147.Emscripten.clang"
  },
  "schemaVersion": "2.0.1",
  "updatedAt": "2018-07-17T08:31:22.193Z"
}