{
  "contractName": "Test",
  "abi": [
    {
      "constant": false,
      "inputs": [
        {
          "name": "_question",
          "type": "string"
        }
      ],
      "name": "createVote",
      "outputs": [],
      "payable": false,
      "stateMutability": "nonpayable",
      "type": "function"
    },
    {
      "constant": false,
      "inputs": [
        {
          "name": "_voteId",
          "type": "uint256"
        }
      ],
      "name": "startVote",
      "outputs": [],
      "payable": false,
      "stateMutability": "nonpayable",
      "type": "function"
    },
    {
      "constant": false,
      "inputs": [
        {
          "name": "_voteId",
          "type": "uint256"
        }
      ],
      "name": "stopVote",
      "outputs": [],
      "payable": false,
      "stateMutability": "nonpayable",
      "type": "function"
    },
    {
      "constant": true,
      "inputs": [
        {
          "name": "",
          "type": "uint256"
        }
      ],
      "name": "votes",
      "outputs": [
        {
          "name": "question",
          "type": "string"
        },
        {
          "name": "voteState",
          "type": "uint8"
        }
      ],
      "payable": false,
      "stateMutability": "view",
      "type": "function"
    },
    {
      "constant": false,
      "inputs": [],
      "name": "renounceOwnership",
      "outputs": [],
      "payable": false,
      "stateMutability": "nonpayable",
      "type": "function"
    },
    {
      "constant": false,
      "inputs": [
        {
          "name": "_voteId",
          "type": "uint256"
        },
        {
          "name": "_answer",
          "type": "string"
        }
      ],
      "name": "addAnswer",
      "outputs": [],
      "payable": false,
      "stateMutability": "nonpayable",
      "type": "function"
    },
    {
      "constant": true,
      "inputs": [],
      "name": "owner",
      "outputs": [
        {
          "name": "",
          "type": "address"
        }
      ],
      "payable": false,
      "stateMutability": "view",
      "type": "function"
    },
    {
      "constant": false,
      "inputs": [
        {
          "name": "_newOwner",
          "type": "address"
        }
      ],
      "name": "transferOwnership",
      "outputs": [],
      "payable": false,
      "stateMutability": "nonpayable",
      "type": "function"
    },
    {
      "anonymous": false,
      "inputs": [
        {
          "indexed": true,
          "name": "previousOwner",
          "type": "address"
        }
      ],
      "name": "OwnershipRenounced",
      "type": "event"
    },
    {
      "anonymous": false,
      "inputs": [
        {
          "indexed": true,
          "name": "previousOwner",
          "type": "address"
        },
        {
          "indexed": true,
          "name": "newOwner",
          "type": "address"
        }
      ],
      "name": "OwnershipTransferred",
      "type": "event"
    },
    {
      "constant": true,
      "inputs": [
        {
          "name": "_voteId",
          "type": "uint256"
        },
        {
          "name": "_answer",
          "type": "string"
        }
      ],
      "name": "testAddAnswer",
      "outputs": [
        {
          "name": "",
          "type": "string"
        }
      ],
      "payable": false,
      "stateMutability": "view",
      "type": "function"
    },
    {
      "constant": true,
      "inputs": [
        {
          "name": "_voteId",
          "type": "uint256"
        }
      ],
      "name": "testStartVote",
      "outputs": [
        {
          "name": "",
          "type": "uint8"
        }
      ],
      "payable": false,
      "stateMutability": "view",
      "type": "function"
    },
    {
      "constant": true,
      "inputs": [
        {
          "name": "_voteId",
          "type": "uint256"
        }
      ],
      "name": "testStopVote",
      "outputs": [
        {
          "name": "",
          "type": "uint8"
        }
      ],
      "payable": false,
      "stateMutability": "view",
      "type": "function"
    },
    {
      "constant": true,
      "inputs": [
        {
          "name": "_newOwner",
          "type": "address"
        }
      ],
      "name": "testTransferOwnership",
      "outputs": [
        {
          "name": "",
          "type": "address"
        }
      ],
      "payable": false,
      "stateMutability": "view",
      "type": "function"
    },
    {
      "constant": true,
      "inputs": [],
      "name": "testRenounceOwnership",
      "outputs": [
        {
          "name": "",
          "type": "address"
        }
      ],
      "payable": false,
      "stateMutability": "view",
      "type": "function"
    }
  ],
  "bytecode": "0x6080604052336000806101000a81548173ffffffffffffffffffffffffffffffffffffffff021916908373ffffffffffffffffffffffffffffffffffffffff1602179055506111be806100536000396000f3006080604052600436106100c5576000357c0100000000000000000000000000000000000000000000000000000000900463ffffffff16806313292a02146100ca5780631dcf708b146101335780633720e5b8146101825780633f2205241461020557806343ab92b7146102325780635df813301461025f578063715018a61461031a5780637491995a146103315780638da5cb5b146103a4578063a396870e146103fb578063f09d1d441461044a578063f2fde38b146104a1578063fd098be0146104e4575b600080fd5b3480156100d657600080fd5b50610131600480360381019080803590602001908201803590602001908080601f01602080910402602001604051908101604052809392919081815260200183838082843782019150505050505091929192905050506105a2565b005b34801561013f57600080fd5b5061015e600480360381019080803590602001909291905050506106ed565b6040518082600281111561016e57fe5b60ff16815260200191505060405180910390f35b34801561018e57600080fd5b506101c3600480360381019080803573ffffffffffffffffffffffffffffffffffffffff16906020019092919050505061072d565b604051808273ffffffffffffffffffffffffffffffffffffffff1673ffffffffffffffffffffffffffffffffffffffff16815260200191505060405180910390f35b34801561021157600080fd5b5061023060048036038101908080359060200190929190505050610761565b005b34801561023e57600080fd5b5061025d60048036038101908080359060200190929190505050610868565b005b34801561026b57600080fd5b5061028a60048036038101908080359060200190929190505050610970565b604051808060200183600281111561029e57fe5b60ff168152602001828103825284818151815260200191508051906020019080838360005b838110156102de5780820151818401526020810190506102c3565b50505050905090810190601f16801561030b5780820380516001836020036101000a031916815260200191505b50935050505060405180910390f35b34801561032657600080fd5b5061032f610a48565b005b34801561033d57600080fd5b506103a260048036038101908080359060200190929190803590602001908201803590602001908080601f0160208091040260200160405190810160405280939291908181526020018383808284378201915050505050509192919290505050610b4a565b005b3480156103b057600080fd5b506103b9610c6e565b604051808273ffffffffffffffffffffffffffffffffffffffff1673ffffffffffffffffffffffffffffffffffffffff16815260200191505060405180910390f35b34801561040757600080fd5b5061042660048036038101908080359060200190929190505050610c93565b6040518082600281111561043657fe5b60ff16815260200191505060405180910390f35b34801561045657600080fd5b5061045f610cd3565b604051808273ffffffffffffffffffffffffffffffffffffffff1673ffffffffffffffffffffffffffffffffffffffff16815260200191505060405180910390f35b3480156104ad57600080fd5b506104e2600480360381019080803573ffffffffffffffffffffffffffffffffffffffff169060200190929190505050610cfc565b005b3480156104f057600080fd5b5061052760048036038101908080359060200190929190803590602001908201803590602001919091929391929390505050610d63565b6040518080602001828103825283818151815260200191508051906020019080838360005b8381101561056757808201518184015260208101905061054c565b50505050905090810190601f1680156105945780820380516001836020036101000a031916815260200191505b509250505060405180910390f35b6000600180606060405190810160405280858152602001600060028111156105c657fe5b8152602001600060405190808252806020026020018201604052801561060057816020015b60608152602001906001900390816105eb5790505b5081525090806001815401808255809150509060018203906000526020600020906003020160009091929091909150600082015181600001908051906020019061064b929190610f99565b5060208201518160010160006101000a81548160ff0219169083600281111561067057fe5b02179055506040820151816002019080519060200190610691929190611019565b505050039050336002600083815260200190815260200160002060006101000a81548173ffffffffffffffffffffffffffffffffffffffff021916908373ffffffffffffffffffffffffffffffffffffffff1602179055505050565b60006106f882610868565b60018281548110151561070757fe5b906000526020600020906003020160010160009054906101000a900460ff169050919050565b600061073882610cfc565b6000809054906101000a900473ffffffffffffffffffffffffffffffffffffffff169050919050565b806000600281111561076f57fe5b60018281548110151561077e57fe5b906000526020600020906003020160010160009054906101000a900460ff1660028111156107a857fe5b1415156107b457600080fd5b813373ffffffffffffffffffffffffffffffffffffffff166002600083815260200190815260200160002060009054906101000a900473ffffffffffffffffffffffffffffffffffffffff1673ffffffffffffffffffffffffffffffffffffffff1614151561082257600080fd5b6001808481548110151561083257fe5b906000526020600020906003020160010160006101000a81548160ff0219169083600281111561085e57fe5b0217905550505050565b806001600281111561087657fe5b60018281548110151561088557fe5b906000526020600020906003020160010160009054906101000a900460ff1660028111156108af57fe5b1415156108bb57600080fd5b813373ffffffffffffffffffffffffffffffffffffffff166002600083815260200190815260200160002060009054906101000a900473ffffffffffffffffffffffffffffffffffffffff1673ffffffffffffffffffffffffffffffffffffffff1614151561092957600080fd5b600260018481548110151561093a57fe5b906000526020600020906003020160010160006101000a81548160ff0219169083600281111561096657fe5b0217905550505050565b60018181548110151561097f57fe5b9060005260206000209060030201600091509050806000018054600181600116156101000203166002900480601f016020809104026020016040519081016040528092919081815260200182805460018160011615610100020316600290048015610a2b5780601f10610a0057610100808354040283529160200191610a2b565b820191906000526020600020905b815481529060010190602001808311610a0e57829003601f168201915b5050505050908060010160009054906101000a900460ff16905082565b6000809054906101000a900473ffffffffffffffffffffffffffffffffffffffff1673ffffffffffffffffffffffffffffffffffffffff163373ffffffffffffffffffffffffffffffffffffffff16141515610aa357600080fd5b6000809054906101000a900473ffffffffffffffffffffffffffffffffffffffff1673ffffffffffffffffffffffffffffffffffffffff167ff8df31144d9c2f0f6b59d69b8b98abd5459d07f2742c4df920b25aae33c6482060405160405180910390a260008060006101000a81548173ffffffffffffffffffffffffffffffffffffffff021916908373ffffffffffffffffffffffffffffffffffffffff160217905550565b8160006002811115610b5857fe5b600182815481101515610b6757fe5b906000526020600020906003020160010160009054906101000a900460ff166002811115610b9157fe5b141515610b9d57600080fd5b823373ffffffffffffffffffffffffffffffffffffffff166002600083815260200190815260200160002060009054906101000a900473ffffffffffffffffffffffffffffffffffffffff1673ffffffffffffffffffffffffffffffffffffffff16141515610c0b57600080fd5b600184815481101515610c1a57fe5b9060005260206000209060030201600201839080600181540180825580915050906001820390600052602060002001600090919290919091509080519060200190610c66929190611079565b505050505050565b6000809054906101000a900473ffffffffffffffffffffffffffffffffffffffff1681565b6000610c9e82610761565b600182815481101515610cad57fe5b906000526020600020906003020160010160009054906101000a900460ff169050919050565b60008060009054906101000a900473ffffffffffffffffffffffffffffffffffffffff16905090565b6000809054906101000a900473ffffffffffffffffffffffffffffffffffffffff1673ffffffffffffffffffffffffffffffffffffffff163373ffffffffffffffffffffffffffffffffffffffff16141515610d5757600080fd5b610d6081610e9f565b50565b6060610da18484848080601f016020809104026020016040519081016040528093929190818152602001838380828437820191505050505050610b4a565b600184815481101515610db057fe5b906000526020600020906003020160020160018086815481101515610dd157fe5b90600052602060002090600302016002018054905003815481101515610df357fe5b906000526020600020018054600181600116156101000203166002900480601f016020809104026020016040519081016040528092919081815260200182805460018160011615610100020316600290048015610e915780601f10610e6657610100808354040283529160200191610e91565b820191906000526020600020905b815481529060010190602001808311610e7457829003601f168201915b505050505090509392505050565b600073ffffffffffffffffffffffffffffffffffffffff168173ffffffffffffffffffffffffffffffffffffffff1614151515610edb57600080fd5b8073ffffffffffffffffffffffffffffffffffffffff166000809054906101000a900473ffffffffffffffffffffffffffffffffffffffff1673ffffffffffffffffffffffffffffffffffffffff167f8be0079c531659141344cd1fd0a4f28419497f9722a3daafe3b4186f6b6457e060405160405180910390a3806000806101000a81548173ffffffffffffffffffffffffffffffffffffffff021916908373ffffffffffffffffffffffffffffffffffffffff16021790555050565b828054600181600116156101000203166002900490600052602060002090601f016020900481019282601f10610fda57805160ff1916838001178555611008565b82800160010185558215611008579182015b82811115611007578251825591602001919060010190610fec565b5b50905061101591906110f9565b5090565b828054828255906000526020600020908101928215611068579160200282015b82811115611067578251829080519060200190611057929190610f99565b5091602001919060010190611039565b5b509050611075919061111e565b5090565b828054600181600116156101000203166002900490600052602060002090601f016020900481019282601f106110ba57805160ff19168380011785556110e8565b828001600101855582156110e8579182015b828111156110e75782518255916020019190600101906110cc565b5b5090506110f591906110f9565b5090565b61111b91905b808211156111175760008160009055506001016110ff565b5090565b90565b61114791905b80821115611143576000818161113a919061114a565b50600101611124565b5090565b90565b50805460018160011615610100020316600290046000825580601f10611170575061118f565b601f01602090049060005260206000209081019061118e91906110f9565b5b505600a165627a7a72305820dce0d5a39d64d9cf9ed1e63b77459aa53c9a36d93266190ac830c952badd1dea0029",
  "source": "pragma solidity ^0.4.24;\n\nimport \"./VoteFactory.sol\";\n\n//CONTRACT FOR IZI TESTS\ncontract Test is VoteFactory {\n\n    function testAddAnswer(uint _voteId, string _answer) external constant returns(string) {\n        addAnswer(_voteId, _answer);\n        return votes[_voteId].answers[votes[_voteId].answers.length-1];\n    }\n\n    function testStartVote(uint _voteId) external constant returns(State) {\n        startVote(_voteId);\n        return votes[_voteId].voteState;\n    }\n\n    function testStopVote(uint _voteId) external constant returns(State) {\n        stopVote(_voteId);\n        return votes[_voteId].voteState;\n    }\n\n    function testTransferOwnership(address _newOwner) external constant returns(address) {\n        transferOwnership(_newOwner);\n\n        return owner;\n    }\n\n    function testRenounceOwnership() external constant returns (address) {\n        return owner;\n    }\n\n}",
  "sourcePath": "/home/bgdnvdmtry/Рабочий стол/Napoleon/contracts/Test.sol",
  "compiler": {
    "name": "solc",
    "version": "0.4.24+commit.e67f0147.Emscripten.clang"
  },
  "schemaVersion": "2.0.1",
  "updatedAt": "2018-07-15T09:37:20.858Z"
}