{
  "contractName": "VoteFactory",
  "abi": [
    {
      "constant": true,
      "inputs": [
        {
          "name": "",
          "type": "uint256"
        }
      ],
      "name": "votes",
      "outputs": [
        {
          "name": "question",
          "type": "string"
        },
        {
          "name": "voteState",
          "type": "uint8"
        }
      ],
      "payable": false,
      "stateMutability": "view",
      "type": "function"
    },
    {
      "constant": false,
      "inputs": [],
      "name": "renounceOwnership",
      "outputs": [],
      "payable": false,
      "stateMutability": "nonpayable",
      "type": "function"
    },
    {
      "constant": true,
      "inputs": [],
      "name": "owner",
      "outputs": [
        {
          "name": "",
          "type": "address"
        }
      ],
      "payable": false,
      "stateMutability": "view",
      "type": "function"
    },
    {
      "constant": false,
      "inputs": [
        {
          "name": "_newOwner",
          "type": "address"
        }
      ],
      "name": "transferOwnership",
      "outputs": [],
      "payable": false,
      "stateMutability": "nonpayable",
      "type": "function"
    },
    {
      "anonymous": false,
      "inputs": [
        {
          "indexed": true,
          "name": "previousOwner",
          "type": "address"
        }
      ],
      "name": "OwnershipRenounced",
      "type": "event"
    },
    {
      "anonymous": false,
      "inputs": [
        {
          "indexed": true,
          "name": "previousOwner",
          "type": "address"
        },
        {
          "indexed": true,
          "name": "newOwner",
          "type": "address"
        }
      ],
      "name": "OwnershipTransferred",
      "type": "event"
    },
    {
      "constant": false,
      "inputs": [
        {
          "name": "_question",
          "type": "string"
        }
      ],
      "name": "createVote",
      "outputs": [],
      "payable": false,
      "stateMutability": "nonpayable",
      "type": "function"
    },
    {
      "constant": false,
      "inputs": [
        {
          "name": "_voteId",
          "type": "uint256"
        },
        {
          "name": "_answer",
          "type": "string"
        }
      ],
      "name": "addAnswer",
      "outputs": [],
      "payable": false,
      "stateMutability": "nonpayable",
      "type": "function"
    },
    {
      "constant": false,
      "inputs": [
        {
          "name": "_voteId",
          "type": "uint256"
        }
      ],
      "name": "startVote",
      "outputs": [],
      "payable": false,
      "stateMutability": "nonpayable",
      "type": "function"
    },
    {
      "constant": false,
      "inputs": [
        {
          "name": "_voteId",
          "type": "uint256"
        }
      ],
      "name": "stopVote",
      "outputs": [],
      "payable": false,
      "stateMutability": "nonpayable",
      "type": "function"
    },
    {
      "constant": false,
      "inputs": [
        {
          "name": "_voteId",
          "type": "uint256"
        },
        {
          "name": "_answerId",
          "type": "uint256"
        }
      ],
      "name": "cast",
      "outputs": [],
      "payable": false,
      "stateMutability": "nonpayable",
      "type": "function"
    },
    {
      "constant": true,
      "inputs": [
        {
          "name": "_voteId",
          "type": "uint256"
        }
      ],
      "name": "results",
      "outputs": [
        {
          "name": "",
          "type": "string"
        }
      ],
      "payable": false,
      "stateMutability": "view",
      "type": "function"
    }
  ],
  "bytecode": "0x6080604052336000806101000a81548173ffffffffffffffffffffffffffffffffffffffff021916908373ffffffffffffffffffffffffffffffffffffffff16021790555061143e806100536000396000f3006080604052600436106100a4576000357c0100000000000000000000000000000000000000000000000000000000900463ffffffff16806313292a02146100a95780631b0c27da146101125780633f220524146101b857806343ab92b7146101e55780635df8133014610212578063715018a6146102cd5780637491995a146102e45780638da5cb5b14610357578063dd2d9cb2146103ae578063f2fde38b146103e5575b600080fd5b3480156100b557600080fd5b50610110600480360381019080803590602001908201803590602001908080601f0160208091040260200160405190810160405280939291908181526020018383808284378201915050505050509192919290505050610428565b005b34801561011e57600080fd5b5061013d600480360381019080803590602001909291905050506105c6565b6040518080602001828103825283818151815260200191508051906020019080838360005b8381101561017d578082015181840152602081019050610162565b50505050905090810190601f1680156101aa5780820380516001836020036101000a031916815260200191505b509250505060405180910390f35b3480156101c457600080fd5b506101e360048036038101908080359060200190929190505050610838565b005b3480156101f157600080fd5b5061021060048036038101908080359060200190929190505050610972565b005b34801561021e57600080fd5b5061023d60048036038101908080359060200190929190505050610a7a565b604051808060200183600281111561025157fe5b60ff168152602001828103825284818151815260200191508051906020019080838360005b83811015610291578082015181840152602081019050610276565b50505050905090810190601f1680156102be5780820380516001836020036101000a031916815260200191505b50935050505060405180910390f35b3480156102d957600080fd5b506102e2610b52565b005b3480156102f057600080fd5b5061035560048036038101908080359060200190929190803590602001908201803590602001908080601f0160208091040260200160405190810160405280939291908181526020018383808284378201915050505050509192919290505050610c54565b005b34801561036357600080fd5b5061036c610d78565b604051808273ffffffffffffffffffffffffffffffffffffffff1673ffffffffffffffffffffffffffffffffffffffff16815260200191505060405180910390f35b3480156103ba57600080fd5b506103e36004803603810190808035906020019092919080359060200190929190505050610d9d565b005b3480156103f157600080fd5b50610426600480360381019080803573ffffffffffffffffffffffffffffffffffffffff169060200190929190505050610feb565b005b60006001806080604051908101604052808581526020016000600281111561044c57fe5b8152602001600060405190808252806020026020018201604052801561048657816020015b60608152602001906001900390816104715790505b50815260200160006040519080825280602002602001820160405280156104bc5781602001602082028038833980820191505090505b5081525090806001815401808255809150509060018203906000526020600020906005020160009091929091909150600082015181600001908051906020019061050792919061114c565b5060208201518160010160006101000a81548160ff0219169083600281111561052c57fe5b0217905550604082015181600201908051906020019061054d9291906111cc565b50606082015181600301908051906020019061056a92919061122c565b505050039050336002600083815260200190815260200160002060006101000a81548173ffffffffffffffffffffffffffffffffffffffff021916908373ffffffffffffffffffffffffffffffffffffffff1602179055505050565b606080600080846002808111156105d957fe5b6001828154811015156105e857fe5b906000526020600020906005020160010160009054906101000a900460ff16600281111561061257fe5b14151561061e57600080fd5b60018681548110151561062d57fe5b9060005260206000209060050201600201805490506040519080825280602002602001820160405280156106705781602001602082028038833980820191505090505b509350600092505b60018681548110151561068757fe5b90600052602060002090600502016003018054905083101561070457836001878154811015156106b357fe5b90600052602060002090600502016004016000858152602001908152602001600020548151811015156106e257fe5b9060200190602002018051809190600101815250508280600101935050610678565b60009150600092505b835183101561075d57838281518110151561072457fe5b90602001906020020151848481518110151561073c57fe5b906020019060200201511115610750578291505b828060010193505061070d565b60018681548110151561076c57fe5b90600052602060002090600502016002018281548110151561078a57fe5b906000526020600020018054600181600116156101000203166002900480601f0160208091040260200160405190810160405280929190818152602001828054600181600116156101000203166002900480156108285780601f106107fd57610100808354040283529160200191610828565b820191906000526020600020905b81548152906001019060200180831161080b57829003601f168201915b5050505050945050505050919050565b806000600281111561084657fe5b60018281548110151561085557fe5b906000526020600020906005020160010160009054906101000a900460ff16600281111561087f57fe5b14151561088b57600080fd5b813373ffffffffffffffffffffffffffffffffffffffff166002600083815260200190815260200160002060009054906101000a900473ffffffffffffffffffffffffffffffffffffffff1673ffffffffffffffffffffffffffffffffffffffff161415156108f957600080fd5b600260018481548110151561090a57fe5b9060005260206000209060050201600201805490501015151561092c57600080fd5b6001808481548110151561093c57fe5b906000526020600020906005020160010160006101000a81548160ff0219169083600281111561096857fe5b0217905550505050565b806001600281111561098057fe5b60018281548110151561098f57fe5b906000526020600020906005020160010160009054906101000a900460ff1660028111156109b957fe5b1415156109c557600080fd5b813373ffffffffffffffffffffffffffffffffffffffff166002600083815260200190815260200160002060009054906101000a900473ffffffffffffffffffffffffffffffffffffffff1673ffffffffffffffffffffffffffffffffffffffff16141515610a3357600080fd5b6002600184815481101515610a4457fe5b906000526020600020906005020160010160006101000a81548160ff02191690836002811115610a7057fe5b0217905550505050565b600181815481101515610a8957fe5b9060005260206000209060050201600091509050806000018054600181600116156101000203166002900480601f016020809104026020016040519081016040528092919081815260200182805460018160011615610100020316600290048015610b355780601f10610b0a57610100808354040283529160200191610b35565b820191906000526020600020905b815481529060010190602001808311610b1857829003601f168201915b5050505050908060010160009054906101000a900460ff16905082565b6000809054906101000a900473ffffffffffffffffffffffffffffffffffffffff1673ffffffffffffffffffffffffffffffffffffffff163373ffffffffffffffffffffffffffffffffffffffff16141515610bad57600080fd5b6000809054906101000a900473ffffffffffffffffffffffffffffffffffffffff1673ffffffffffffffffffffffffffffffffffffffff167ff8df31144d9c2f0f6b59d69b8b98abd5459d07f2742c4df920b25aae33c6482060405160405180910390a260008060006101000a81548173ffffffffffffffffffffffffffffffffffffffff021916908373ffffffffffffffffffffffffffffffffffffffff160217905550565b8160006002811115610c6257fe5b600182815481101515610c7157fe5b906000526020600020906005020160010160009054906101000a900460ff166002811115610c9b57fe5b141515610ca757600080fd5b823373ffffffffffffffffffffffffffffffffffffffff166002600083815260200190815260200160002060009054906101000a900473ffffffffffffffffffffffffffffffffffffffff1673ffffffffffffffffffffffffffffffffffffffff16141515610d1557600080fd5b600184815481101515610d2457fe5b9060005260206000209060050201600201839080600181540180825580915050906001820390600052602060002001600090919290919091509080519060200190610d709291906112b6565b505050505050565b6000809054906101000a900473ffffffffffffffffffffffffffffffffffffffff1681565b6000808360016002811115610dae57fe5b600182815481101515610dbd57fe5b906000526020600020906005020160010160009054906101000a900460ff166002811115610de757fe5b141515610df357600080fd5b600185815481101515610e0257fe5b90600052602060002090600502016002018054905084101515610e2457600080fd5b600092505b600185815481101515610e3857fe5b906000526020600020906005020160030180549050831015610f27573373ffffffffffffffffffffffffffffffffffffffff16600186815481101515610e7a57fe5b906000526020600020906005020160030184815481101515610e9857fe5b9060005260206000200160009054906101000a900473ffffffffffffffffffffffffffffffffffffffff1673ffffffffffffffffffffffffffffffffffffffff161415610f1a5783600186815481101515610eef57fe5b9060005260206000209060050201600401600085815260200190815260200160002081905550610f27565b8280600101935050610e29565b60018086815481101515610f3757fe5b90600052602060002090600502016003013390806001815401808255809150509060018203906000526020600020016000909192909190916101000a81548173ffffffffffffffffffffffffffffffffffffffff021916908373ffffffffffffffffffffffffffffffffffffffff16021790555003915083600186815481101515610fbe57fe5b90600052602060002090600502016004016000848152602001908152602001600020819055505050505050565b6000809054906101000a900473ffffffffffffffffffffffffffffffffffffffff1673ffffffffffffffffffffffffffffffffffffffff163373ffffffffffffffffffffffffffffffffffffffff1614151561104657600080fd5b61104f81611052565b50565b600073ffffffffffffffffffffffffffffffffffffffff168173ffffffffffffffffffffffffffffffffffffffff161415151561108e57600080fd5b8073ffffffffffffffffffffffffffffffffffffffff166000809054906101000a900473ffffffffffffffffffffffffffffffffffffffff1673ffffffffffffffffffffffffffffffffffffffff167f8be0079c531659141344cd1fd0a4f28419497f9722a3daafe3b4186f6b6457e060405160405180910390a3806000806101000a81548173ffffffffffffffffffffffffffffffffffffffff021916908373ffffffffffffffffffffffffffffffffffffffff16021790555050565b828054600181600116156101000203166002900490600052602060002090601f016020900481019282601f1061118d57805160ff19168380011785556111bb565b828001600101855582156111bb579182015b828111156111ba57825182559160200191906001019061119f565b5b5090506111c89190611336565b5090565b82805482825590600052602060002090810192821561121b579160200282015b8281111561121a57825182908051906020019061120a92919061114c565b50916020019190600101906111ec565b5b509050611228919061135b565b5090565b8280548282559060005260206000209081019282156112a5579160200282015b828111156112a45782518260006101000a81548173ffffffffffffffffffffffffffffffffffffffff021916908373ffffffffffffffffffffffffffffffffffffffff1602179055509160200191906001019061124c565b5b5090506112b29190611387565b5090565b828054600181600116156101000203166002900490600052602060002090601f016020900481019282601f106112f757805160ff1916838001178555611325565b82800160010185558215611325579182015b82811115611324578251825591602001919060010190611309565b5b5090506113329190611336565b5090565b61135891905b8082111561135457600081600090555060010161133c565b5090565b90565b61138491905b80821115611380576000818161137791906113ca565b50600101611361565b5090565b90565b6113c791905b808211156113c357600081816101000a81549073ffffffffffffffffffffffffffffffffffffffff02191690555060010161138d565b5090565b90565b50805460018160011615610100020316600290046000825580601f106113f0575061140f565b601f01602090049060005260206000209081019061140e9190611336565b5b505600a165627a7a7230582006172c7038800f141b8b9cfde8c59531f3a73f905bf833bda4a03e1bb263c4d30029",
  "source": "pragma solidity ^0.4.24;\n\nimport \"./Ownable.sol\";\n\ncontract VoteFactory is Ownable {\n\n    modifier ownerOfVote (uint _voteId) {\n        require(voteToOwner[_voteId] == msg.sender);\n        _;\n    }\n\n    modifier voteStateInital (uint _voteId) {\n        require(votes[_voteId].voteState == State.Inital);\n        _;\n    }\n\n    modifier voteStateStarted (uint _voteId) {\n        require(votes[_voteId].voteState == State.Started);\n        _;\n    }\n\n    modifier voteStateStopped (uint _voteId) {\n        require(votes[_voteId].voteState == State.Stopped);\n        _;\n    }\n\n    enum State { Inital, Started, Stopped }\n\n    struct Vote {\n        string question;\n        State voteState;\n        string[] answers;\n        address[] users;\n        mapping(uint => uint) userToAnswer;\n    }\n    \n    Vote[] public votes;\n    mapping (uint => address) voteToOwner;\n\n    function createVote(string _question) public {\n        uint voteId = votes.push(Vote(_question, State.Inital, new string[](0),  new address[](0))) - 1;\n        voteToOwner[voteId] = msg.sender;\n    }\n    \n    function addAnswer(uint _voteId, string _answer) public voteStateInital(_voteId) ownerOfVote(_voteId) {\n        votes[_voteId].answers.push(_answer);\n    }\n\n    function startVote(uint _voteId) public voteStateInital(_voteId) ownerOfVote(_voteId) {\n        require(votes[_voteId].answers.length >= 2);\n        votes[_voteId].voteState = State.Started;\n    }\n\n    function stopVote(uint _voteId) public voteStateStarted(_voteId) ownerOfVote(_voteId) {\n        votes[_voteId].voteState = State.Stopped;\n    }\n            \n    function cast(uint256 _voteId, uint256 _answerId) public voteStateStarted(_voteId) {\n        require(_answerId < votes[_voteId].answers.length);\n        for (uint i = 0; i < votes[_voteId].users.length; i++) {\n            if (votes[_voteId].users[i] == msg.sender) {\n                votes[_voteId].userToAnswer[i] = _answerId;\n                break;\n            }\n        }\n\n        uint newUser = votes[_voteId].users.push(msg.sender) - 1;\n        votes[_voteId].userToAnswer[newUser] = _answerId;\n    }\n\n    function results(uint _voteId) public view voteStateStopped(_voteId) returns(string) {\n        uint[] memory result = new uint[](votes[_voteId].answers.length);\n        \n        for (uint i = 0; i < votes[_voteId].users.length; i++){\n            result[votes[_voteId].userToAnswer[i]]++;\n        }\n\n        uint winnerId = 0;\n        for (i = 0; i < result.length; i++){\n            if (result[i] > result[winnerId]){\n                winnerId = i;\n            }\n        }\n\n        return votes[_voteId].answers[winnerId];\n    }\n\n}",
  "sourcePath": "/home/bgdnvdmtry/Рабочий стол/Napoleon/contracts/VoteFactory.sol",
  "compiler": {
    "name": "solc",
    "version": "0.4.24+commit.e67f0147.Emscripten.clang"
  },
  "schemaVersion": "2.0.1",
  "updatedAt": "2018-07-17T08:31:34.384Z"
}